{"address":"0x0232fAE975721d816cC0b82c8C1eCd446094D3D6","bytecode":"0x6101406040523480156200001257600080fd5b5060405162003be938038062003be9833981810160405281019062000038919062000482565b836040518060400160405280600c81526020017f785375736869205661756c7400000000000000000000000000000000000000008152506040518060400160405280600481526020017f53555349000000000000000000000000000000000000000000000000000000008152508160039081620000b691906200076e565b508060049081620000c891906200076e565b505050600080620000df836200021b60201b60201c565b9150915081620000f1576012620000f3565b805b60ff1660a08160ff16815250508273ffffffffffffffffffffffffffffffffffffffff1660808173ffffffffffffffffffffffffffffffffffffffff168152505050505060016005819055508373ffffffffffffffffffffffffffffffffffffffff1660c08173ffffffffffffffffffffffffffffffffffffffff16815250508273ffffffffffffffffffffffffffffffffffffffff1660e08173ffffffffffffffffffffffffffffffffffffffff16815250508173ffffffffffffffffffffffffffffffffffffffff166101008173ffffffffffffffffffffffffffffffffffffffff16815250508073ffffffffffffffffffffffffffffffffffffffff166101208173ffffffffffffffffffffffffffffffffffffffff1681525050505050506200094a565b6000806000808473ffffffffffffffffffffffffffffffffffffffff1660405160240160405160208183030381529060405263313ce56760e01b6020820180517bffffffffffffffffffffffffffffffffffffffffffffffffffffffff8381831617835250505050604051620002929190620008ce565b600060405180830381855afa9150503d8060008114620002cf576040519150601f19603f3d011682016040523d82523d6000602084013e620002d4565b606091505b5091509150818015620002e957506020815110155b15620003265760008180602001905181019062000307919062000918565b905060ff8016811162000324576001819450945050505062000330565b505b6000809350935050505b915091565b600080fd5b600073ffffffffffffffffffffffffffffffffffffffff82169050919050565b600062000367826200033a565b9050919050565b60006200037b826200035a565b9050919050565b6200038d816200036e565b81146200039957600080fd5b50565b600081519050620003ad8162000382565b92915050565b6000620003c0826200035a565b9050919050565b620003d281620003b3565b8114620003de57600080fd5b50565b600081519050620003f281620003c7565b92915050565b600062000405826200035a565b9050919050565b6200041781620003f8565b81146200042357600080fd5b50565b60008151905062000437816200040c565b92915050565b60006200044a826200035a565b9050919050565b6200045c816200043d565b81146200046857600080fd5b50565b6000815190506200047c8162000451565b92915050565b600080600080608085870312156200049f576200049e62000335565b5b6000620004af878288016200039c565b9450506020620004c287828801620003e1565b9350506040620004d58782880162000426565b9250506060620004e8878288016200046b565b91505092959194509250565b600081519050919050565b7f4e487b7100000000000000000000000000000000000000000000000000000000600052604160045260246000fd5b7f4e487b7100000000000000000000000000000000000000000000000000000000600052602260045260246000fd5b600060028204905060018216806200057657607f821691505b6020821081036200058c576200058b6200052e565b5b50919050565b60008190508160005260206000209050919050565b60006020601f8301049050919050565b600082821b905092915050565b600060088302620005f67fffffffffffffffffffffffffffffffffffffffffffffffffffffffffffffffff82620005b7565b620006028683620005b7565b95508019841693508086168417925050509392505050565b6000819050919050565b6000819050919050565b60006200064f6200064962000643846200061a565b62000624565b6200061a565b9050919050565b6000819050919050565b6200066b836200062e565b620006836200067a8262000656565b848454620005c4565b825550505050565b600090565b6200069a6200068b565b620006a781848462000660565b505050565b5b81811015620006cf57620006c360008262000690565b600181019050620006ad565b5050565b601f8211156200071e57620006e88162000592565b620006f384620005a7565b8101602085101562000703578190505b6200071b6200071285620005a7565b830182620006ac565b50505b505050565b600082821c905092915050565b6000620007436000198460080262000723565b1980831691505092915050565b60006200075e838362000730565b9150826002028217905092915050565b6200077982620004f4565b67ffffffffffffffff811115620007955762000794620004ff565b5b620007a182546200055d565b620007ae828285620006d3565b600060209050601f831160018114620007e65760008415620007d1578287015190505b620007dd858262000750565b8655506200084d565b601f198416620007f68662000592565b60005b828110156200082057848901518255600182019150602085019450602081019050620007f9565b868310156200084057848901516200083c601f89168262000730565b8355505b6001600288020188555050505b505050505050565b600081519050919050565b600081905092915050565b60005b838110156200088b5780820151818401526020810190506200086e565b60008484015250505050565b6000620008a48262000855565b620008b0818562000860565b9350620008c28185602086016200086b565b80840191505092915050565b6000620008dc828462000897565b915081905092915050565b620008f2816200061a565b8114620008fe57600080fd5b50565b6000815190506200091281620008e7565b92915050565b60006020828403121562000931576200093062000335565b5b6000620009418482850162000901565b91505092915050565b60805160a05160c05160e05161010051610120516131b562000a34600039600081816106d00152818161083e01528181610e64015281816119f70152611aa1015260008181610fbd01528181611042015261146b0152600081816107bc01528181610ca70152818161122e015281816112b101528181611759015281816117dc0152818161197501528181611add0152611b60015260008181610780015281816109b801528181610e92015281816110a6015281816111f2015281816116f40152818161171d015281816119390152611bee01526000610a3301526000610a6501526131b56000f3fe608060405234801561001057600080fd5b50600436106101da5760003560e01c806395d89b4111610104578063c6e6f592116100a2578063d905777e11610071578063d905777e1461061d578063dd62ed3e1461064d578063ef8b30f71461067d578063f887ea40146106ad576101da565b8063c6e6f5921461056f578063ce96cb771461059f578063d2984608146105cf578063d538d62c146105ed576101da565b8063b3d7f6b9116100de578063b3d7f6b9146104af578063b460af94146104df578063ba0876521461050f578063c63d75b61461053f576101da565b806395d89b4114610443578063a042074714610461578063a9059cbb1461047f576101da565b806323b872dd1161017c5780634cdad5061161014b5780634cdad506146103835780636e553f65146103b357806370a08231146103e357806394bf804d14610413576101da565b806323b872dd146102e7578063313ce5671461031757806338d52e0f14610335578063402d267d14610353576101da565b8063095ea7b3116101b8578063095ea7b31461024b5780630a0879031461027b5780630a28a4771461029957806318160ddd146102c9576101da565b806301e1d114146101df57806306fdde03146101fd57806307a2d13a1461021b575b600080fd5b6101e76106cb565b6040516101f49190612593565b60405180910390f35b6102056108ed565b604051610212919061263e565b60405180910390f35b61023560048036038101906102309190612691565b61097f565b6040516102429190612593565b60405180910390f35b6102656004803603810190610260919061271c565b610993565b6040516102729190612777565b60405180910390f35b6102836109b6565b60405161029091906127f1565b60405180910390f35b6102b360048036038101906102ae9190612691565b6109da565b6040516102c09190612593565b60405180910390f35b6102d16109ee565b6040516102de9190612593565b60405180910390f35b61030160048036038101906102fc919061280c565b6109f8565b60405161030e9190612777565b60405180910390f35b61031f610a27565b60405161032c919061287b565b60405180910390f35b61033d610a61565b60405161034a91906128a5565b60405180910390f35b61036d600480360381019061036891906128c0565b610a89565b60405161037a9190612593565b60405180910390f35b61039d60048036038101906103989190612691565b610ab3565b6040516103aa9190612593565b60405180910390f35b6103cd60048036038101906103c891906128ed565b610ac7565b6040516103da9190612593565b60405180910390f35b6103fd60048036038101906103f891906128c0565b610b49565b60405161040a9190612593565b60405180910390f35b61042d600480360381019061042891906128ed565b610b91565b60405161043a9190612593565b60405180910390f35b61044b610c13565b604051610458919061263e565b60405180910390f35b610469610ca5565b604051610476919061294e565b60405180910390f35b6104996004803603810190610494919061271c565b610cc9565b6040516104a69190612777565b60405180910390f35b6104c960048036038101906104c49190612691565b610cec565b6040516104d69190612593565b60405180910390f35b6104f960048036038101906104f49190612969565b610d00565b6040516105069190612593565b60405180910390f35b61052960048036038101906105249190612969565b610d84565b6040516105369190612593565b60405180910390f35b610559600480360381019061055491906128c0565b610e08565b6040516105669190612593565b60405180910390f35b61058960048036038101906105849190612691565b610e32565b6040516105969190612593565b60405180910390f35b6105b960048036038101906105b491906128c0565b610e46565b6040516105c69190612593565b60405180910390f35b6105d7610e62565b6040516105e491906127f1565b60405180910390f35b610607600480360381019061060291906129f7565b610e86565b6040516106149190612593565b60405180910390f35b610637600480360381019061063291906128c0565b6113bc565b6040516106449190612593565b60405180910390f35b61066760048036038101906106629190612a5e565b6113ce565b6040516106749190612593565b60405180910390f35b61069760048036038101906106929190612691565b611455565b6040516106a49190612593565b60405180910390f35b6106b5611469565b6040516106c29190612abf565b60405180910390f35b6000807f000000000000000000000000000000000000000000000000000000000000000073ffffffffffffffffffffffffffffffffffffffff166370a08231306040518263ffffffff1660e01b815260040161072791906128a5565b602060405180830381865afa158015610744573d6000803e3d6000fd5b505050506040513d601f19601f820116820180604052508101906107689190612aef565b90506000810361077c5760009150506108ea565b60007f000000000000000000000000000000000000000000000000000000000000000073ffffffffffffffffffffffffffffffffffffffff166370a082317f00000000000000000000000000000000000000000000000000000000000000006040518263ffffffff1660e01b81526004016107f791906128a5565b602060405180830381865afa158015610814573d6000803e3d6000fd5b505050506040513d601f19601f820116820180604052508101906108389190612aef565b905060007f000000000000000000000000000000000000000000000000000000000000000073ffffffffffffffffffffffffffffffffffffffff166318160ddd6040518163ffffffff1660e01b8152600401602060405180830381865afa1580156108a7573d6000803e3d6000fd5b505050506040513d601f19601f820116820180604052508101906108cb9190612aef565b90508082846108da9190612b4b565b6108e49190612bbc565b93505050505b90565b6060600380546108fc90612c1c565b80601f016020809104026020016040519081016040528092919081815260200182805461092890612c1c565b80156109755780601f1061094a57610100808354040283529160200191610975565b820191906000526020600020905b81548152906001019060200180831161095857829003601f168201915b5050505050905090565b600061098c82600061148d565b9050919050565b60008061099e6114e6565b90506109ab8185856114ee565b600191505092915050565b7f000000000000000000000000000000000000000000000000000000000000000081565b60006109e7826001611500565b9050919050565b6000600254905090565b600080610a036114e6565b9050610a10858285611559565b610a1b8585856115ee565b60019150509392505050565b6000610a316116e2565b7f0000000000000000000000000000000000000000000000000000000000000000610a5c9190612c4d565b905090565b60007f0000000000000000000000000000000000000000000000000000000000000000905090565b60007fffffffffffffffffffffffffffffffffffffffffffffffffffffffffffffffff9050919050565b6000610ac082600061148d565b9050919050565b600080610ad383610a89565b905080841115610b1e578284826040517f79012fb2000000000000000000000000000000000000000000000000000000008152600401610b1593929190612c82565b60405180910390fd5b6000610b2985611455565b9050610b3e610b366114e6565b8587846116e7565b809250505092915050565b60008060008373ffffffffffffffffffffffffffffffffffffffff1673ffffffffffffffffffffffffffffffffffffffff168152602001908152602001600020549050919050565b600080610b9d83610e08565b905080841115610be8578284826040517f284ff667000000000000000000000000000000000000000000000000000000008152600401610bdf93929190612c82565b60405180910390fd5b6000610bf385610cec565b9050610c08610c006114e6565b8583886116e7565b809250505092915050565b606060048054610c2290612c1c565b80601f0160208091040260200160405190810160405280929190818152602001828054610c4e90612c1c565b8015610c9b5780601f10610c7057610100808354040283529160200191610c9b565b820191906000526020600020905b815481529060010190602001808311610c7e57829003601f168201915b5050505050905090565b7f000000000000000000000000000000000000000000000000000000000000000081565b600080610cd46114e6565b9050610ce18185856115ee565b600191505092915050565b6000610cf982600161148d565b9050919050565b600080610d0c83610e46565b905080851115610d57578285826040517ffe9cceec000000000000000000000000000000000000000000000000000000008152600401610d4e93929190612c82565b60405180910390fd5b6000610d62866109da565b9050610d78610d6f6114e6565b868689856118e4565b80925050509392505050565b600080610d90836113bc565b905080851115610ddb578285826040517fb94abeec000000000000000000000000000000000000000000000000000000008152600401610dd293929190612c82565b60405180910390fd5b6000610de686610ab3565b9050610dfc610df36114e6565b8686848a6118e4565b80925050509392505050565b60007fffffffffffffffffffffffffffffffffffffffffffffffffffffffffffffffff9050919050565b6000610e3f826000611500565b9050919050565b6000610e5b610e5483610b49565b600061148d565b9050919050565b7f000000000000000000000000000000000000000000000000000000000000000081565b6000610e90611ca4565b7f000000000000000000000000000000000000000000000000000000000000000073ffffffffffffffffffffffffffffffffffffffff168573ffffffffffffffffffffffffffffffffffffffff1603610f1e576040517f08c379a0000000000000000000000000000000000000000000000000000000008152600401610f1590612d05565b60405180910390fd5b8473ffffffffffffffffffffffffffffffffffffffff166323b872dd3330876040518463ffffffff1660e01b8152600401610f5b93929190612d25565b6020604051808303816000875af1158015610f7a573d6000803e3d6000fd5b505050506040513d601f19601f82011682018060405250810190610f9e9190612d88565b508473ffffffffffffffffffffffffffffffffffffffff1663095ea7b37f0000000000000000000000000000000000000000000000000000000000000000866040518363ffffffff1660e01b8152600401610ffa929190612db5565b6020604051808303816000875af1158015611019573d6000803e3d6000fd5b505050506040513d601f19601f8201168201806040525081019061103d9190612d88565b5060007f000000000000000000000000000000000000000000000000000000000000000073ffffffffffffffffffffffffffffffffffffffff1663414bf3896040518061010001604052808973ffffffffffffffffffffffffffffffffffffffff1681526020017f000000000000000000000000000000000000000000000000000000000000000073ffffffffffffffffffffffffffffffffffffffff1681526020018662ffffff1681526020013073ffffffffffffffffffffffffffffffffffffffff1681526020016103e8426111159190612dde565b8152602001888152602001878152602001600073ffffffffffffffffffffffffffffffffffffffff168152506040518263ffffffff1660e01b815260040161115d9190612ef0565b6020604051808303816000875af115801561117c573d6000803e3d6000fd5b505050506040513d601f19601f820116820180604052508101906111a09190612aef565b9050600081116111e5576040517f08c379a00000000000000000000000000000000000000000000000000000000081526004016111dc90612f58565b60405180910390fd5b6111ee81611455565b91507f000000000000000000000000000000000000000000000000000000000000000073ffffffffffffffffffffffffffffffffffffffff1663095ea7b37f0000000000000000000000000000000000000000000000000000000000000000836040518363ffffffff1660e01b815260040161126b929190612db5565b6020604051808303816000875af115801561128a573d6000803e3d6000fd5b505050506040513d601f19601f820116820180604052508101906112ae9190612d88565b507f000000000000000000000000000000000000000000000000000000000000000073ffffffffffffffffffffffffffffffffffffffff1663a59f3e0c826040518263ffffffff1660e01b81526004016113089190612593565b600060405180830381600087803b15801561132257600080fd5b505af1158015611336573d6000803e3d6000fd5b505050506113443383611cea565b3373ffffffffffffffffffffffffffffffffffffffff163373ffffffffffffffffffffffffffffffffffffffff167fdcbc1c05240f31ff3ad067ef1ee35ce4997762752e3a095284754544f4c709d783856040516113a3929190612f78565b60405180910390a3506113b4611d6c565b949350505050565b60006113c782610b49565b9050919050565b6000600160008473ffffffffffffffffffffffffffffffffffffffff1673ffffffffffffffffffffffffffffffffffffffff16815260200190815260200160002060008373ffffffffffffffffffffffffffffffffffffffff1673ffffffffffffffffffffffffffffffffffffffff16815260200190815260200160002054905092915050565b6000611462826000611500565b9050919050565b7f000000000000000000000000000000000000000000000000000000000000000081565b60006114de600161149c6106cb565b6114a69190612dde565b6114ae6116e2565b600a6114ba91906130d4565b6114c26109ee565b6114cc9190612dde565b8486611d76909392919063ffffffff16565b905092915050565b600033905090565b6114fb8383836001611dc5565b505050565b600061155161150d6116e2565b600a61151991906130d4565b6115216109ee565b61152b9190612dde565b60016115356106cb565b61153f9190612dde565b8486611d76909392919063ffffffff16565b905092915050565b600061156584846113ce565b90507fffffffffffffffffffffffffffffffffffffffffffffffffffffffffffffffff8110156115e857818110156115d8578281836040517ffb8f41b20000000000000000000000000000000000000000000000000000000081526004016115cf93929190612c82565b60405180910390fd5b6115e784848484036000611dc5565b5b50505050565b600073ffffffffffffffffffffffffffffffffffffffff168373ffffffffffffffffffffffffffffffffffffffff16036116605760006040517f96c6fd1e00000000000000000000000000000000000000000000000000000000815260040161165791906128a5565b60405180910390fd5b600073ffffffffffffffffffffffffffffffffffffffff168273ffffffffffffffffffffffffffffffffffffffff16036116d25760006040517fec442f050000000000000000000000000000000000000000000000000000000081526004016116c991906128a5565b60405180910390fd5b6116dd838383611f9c565b505050565b600090565b6116ef611ca4565b61171b7f00000000000000000000000000000000000000000000000000000000000000008530856121c1565b7f000000000000000000000000000000000000000000000000000000000000000073ffffffffffffffffffffffffffffffffffffffff1663095ea7b37f0000000000000000000000000000000000000000000000000000000000000000846040518363ffffffff1660e01b8152600401611796929190612db5565b6020604051808303816000875af11580156117b5573d6000803e3d6000fd5b505050506040513d601f19601f820116820180604052508101906117d99190612d88565b507f000000000000000000000000000000000000000000000000000000000000000073ffffffffffffffffffffffffffffffffffffffff1663a59f3e0c836040518263ffffffff1660e01b81526004016118339190612593565b600060405180830381600087803b15801561184d57600080fd5b505af1158015611861573d6000803e3d6000fd5b5050505061186f8382611cea565b8273ffffffffffffffffffffffffffffffffffffffff168473ffffffffffffffffffffffffffffffffffffffff167fdcbc1c05240f31ff3ad067ef1ee35ce4997762752e3a095284754544f4c709d784846040516118ce929190612f78565b60405180910390a36118de611d6c565b50505050565b6118ec611ca4565b8273ffffffffffffffffffffffffffffffffffffffff168573ffffffffffffffffffffffffffffffffffffffff161461192b5761192a838683611559565b5b6119358382612243565b60007f000000000000000000000000000000000000000000000000000000000000000073ffffffffffffffffffffffffffffffffffffffff166370a082317f00000000000000000000000000000000000000000000000000000000000000006040518263ffffffff1660e01b81526004016119b091906128a5565b602060405180830381865afa1580156119cd573d6000803e3d6000fd5b505050506040513d601f19601f820116820180604052508101906119f19190612aef565b905060007f000000000000000000000000000000000000000000000000000000000000000073ffffffffffffffffffffffffffffffffffffffff166318160ddd6040518163ffffffff1660e01b8152600401602060405180830381865afa158015611a60573d6000803e3d6000fd5b505050506040513d601f19601f82011682018060405250810190611a849190612aef565b90506000611a9d8286611a979190612b4b565b846122c5565b90507f000000000000000000000000000000000000000000000000000000000000000073ffffffffffffffffffffffffffffffffffffffff1663095ea7b37f0000000000000000000000000000000000000000000000000000000000000000836040518363ffffffff1660e01b8152600401611b1a929190612db5565b6020604051808303816000875af1158015611b39573d6000803e3d6000fd5b505050506040513d601f19601f82011682018060405250810190611b5d9190612d88565b507f000000000000000000000000000000000000000000000000000000000000000073ffffffffffffffffffffffffffffffffffffffff166367dfd4c9826040518263ffffffff1660e01b8152600401611bb79190612593565b600060405180830381600087803b158015611bd157600080fd5b505af1158015611be5573d6000803e3d6000fd5b50505050611c147f00000000000000000000000000000000000000000000000000000000000000008887612305565b8573ffffffffffffffffffffffffffffffffffffffff168773ffffffffffffffffffffffffffffffffffffffff168973ffffffffffffffffffffffffffffffffffffffff167ffbde797d201c681b91056529119e0b02407c7bb96a4a2c75c01fc9667232c8db8888604051611c8a929190612f78565b60405180910390a4505050611c9d611d6c565b5050505050565b600260055403611ce0576040517f3ee5aeb500000000000000000000000000000000000000000000000000000000815260040160405180910390fd5b6002600581905550565b600073ffffffffffffffffffffffffffffffffffffffff168273ffffffffffffffffffffffffffffffffffffffff1603611d5c5760006040517fec442f05000000000000000000000000000000000000000000000000000000008152600401611d5391906128a5565b60405180910390fd5b611d6860008383611f9c565b5050565b6001600581905550565b6000611da6611d8483612384565b8015611da1575060008480611d9c57611d9b612b8d565b5b868809115b6123b2565b611db18686866123be565b611dbb9190612dde565b9050949350505050565b600073ffffffffffffffffffffffffffffffffffffffff168473ffffffffffffffffffffffffffffffffffffffff1603611e375760006040517fe602df05000000000000000000000000000000000000000000000000000000008152600401611e2e91906128a5565b60405180910390fd5b600073ffffffffffffffffffffffffffffffffffffffff168373ffffffffffffffffffffffffffffffffffffffff1603611ea95760006040517f94280d62000000000000000000000000000000000000000000000000000000008152600401611ea091906128a5565b60405180910390fd5b81600160008673ffffffffffffffffffffffffffffffffffffffff1673ffffffffffffffffffffffffffffffffffffffff16815260200190815260200160002060008573ffffffffffffffffffffffffffffffffffffffff1673ffffffffffffffffffffffffffffffffffffffff168152602001908152602001600020819055508015611f96578273ffffffffffffffffffffffffffffffffffffffff168473ffffffffffffffffffffffffffffffffffffffff167f8c5be1e5ebec7d5bd14f71427d1e84f3dd0314c0f7b2291e5b200ac8c7c3b92584604051611f8d9190612593565b60405180910390a35b50505050565b600073ffffffffffffffffffffffffffffffffffffffff168373ffffffffffffffffffffffffffffffffffffffff1603611fee578060026000828254611fe29190612dde565b925050819055506120c1565b60008060008573ffffffffffffffffffffffffffffffffffffffff1673ffffffffffffffffffffffffffffffffffffffff1681526020019081526020016000205490508181101561207a578381836040517fe450d38c00000000000000000000000000000000000000000000000000000000815260040161207193929190612c82565b60405180910390fd5b8181036000808673ffffffffffffffffffffffffffffffffffffffff1673ffffffffffffffffffffffffffffffffffffffff16815260200190815260200160002081905550505b600073ffffffffffffffffffffffffffffffffffffffff168273ffffffffffffffffffffffffffffffffffffffff160361210a5780600260008282540392505081905550612157565b806000808473ffffffffffffffffffffffffffffffffffffffff1673ffffffffffffffffffffffffffffffffffffffff168152602001908152602001600020600082825401925050819055505b8173ffffffffffffffffffffffffffffffffffffffff168373ffffffffffffffffffffffffffffffffffffffff167fddf252ad1be2c89b69c2b068fc378daa952ba7f163c4a11628f55a4df523b3ef836040516121b49190612593565b60405180910390a3505050565b61223d848573ffffffffffffffffffffffffffffffffffffffff166323b872dd8686866040516024016121f693929190612d25565b604051602081830303815290604052915060e01b6020820180517bffffffffffffffffffffffffffffffffffffffffffffffffffffffff83818316178352505050506124ac565b50505050565b600073ffffffffffffffffffffffffffffffffffffffff168273ffffffffffffffffffffffffffffffffffffffff16036122b55760006040517f96c6fd1e0000000000000000000000000000000000000000000000000000000081526004016122ac91906128a5565b60405180910390fd5b6122c182600083611f9c565b5050565b60008082036122d9576122d8601261254e565b5b60018260018503816122ee576122ed612b8d565b5b04016122fc600085116123b2565b02905092915050565b61237f838473ffffffffffffffffffffffffffffffffffffffff1663a9059cbb8585604051602401612338929190612db5565b604051602081830303815290604052915060e01b6020820180517bffffffffffffffffffffffffffffffffffffffffffffffffffffffff83818316178352505050506124ac565b505050565b60006001600283600381111561239d5761239c61311f565b5b6123a7919061314e565b60ff16149050919050565b60008115159050919050565b60008083850290506000801985870982811083820303915050600081036123f9578382816123ef576123ee612b8d565b5b04925050506124a5565b808411612419576124186124136000861460126011612560565b61254e565b5b600084868809905082811182039150808303925060008560000386169050808604955080840493506001818260000304019050808302841793506000600287600302189050808702600203810290508087026002038102905080870260020381029050808702600203810290508087026002038102905080870260020381029050808502955050505050505b9392505050565b600080602060008451602086016000885af1806124cf576040513d6000823e3d81fd5b3d9250600051915050600082146124ea576001811415612506565b60008473ffffffffffffffffffffffffffffffffffffffff163b145b1561254857836040517f5274afe700000000000000000000000000000000000000000000000000000000815260040161253f91906128a5565b60405180910390fd5b50505050565b634e487b71600052806020526024601cfd5b600061256b846123b2565b82841802821890509392505050565b6000819050919050565b61258d8161257a565b82525050565b60006020820190506125a86000830184612584565b92915050565b600081519050919050565b600082825260208201905092915050565b60005b838110156125e85780820151818401526020810190506125cd565b60008484015250505050565b6000601f19601f8301169050919050565b6000612610826125ae565b61261a81856125b9565b935061262a8185602086016125ca565b612633816125f4565b840191505092915050565b600060208201905081810360008301526126588184612605565b905092915050565b600080fd5b61266e8161257a565b811461267957600080fd5b50565b60008135905061268b81612665565b92915050565b6000602082840312156126a7576126a6612660565b5b60006126b58482850161267c565b91505092915050565b600073ffffffffffffffffffffffffffffffffffffffff82169050919050565b60006126e9826126be565b9050919050565b6126f9816126de565b811461270457600080fd5b50565b600081359050612716816126f0565b92915050565b6000806040838503121561273357612732612660565b5b600061274185828601612707565b92505060206127528582860161267c565b9150509250929050565b60008115159050919050565b6127718161275c565b82525050565b600060208201905061278c6000830184612768565b92915050565b6000819050919050565b60006127b76127b26127ad846126be565b612792565b6126be565b9050919050565b60006127c98261279c565b9050919050565b60006127db826127be565b9050919050565b6127eb816127d0565b82525050565b600060208201905061280660008301846127e2565b92915050565b60008060006060848603121561282557612824612660565b5b600061283386828701612707565b935050602061284486828701612707565b92505060406128558682870161267c565b9150509250925092565b600060ff82169050919050565b6128758161285f565b82525050565b6000602082019050612890600083018461286c565b92915050565b61289f816126de565b82525050565b60006020820190506128ba6000830184612896565b92915050565b6000602082840312156128d6576128d5612660565b5b60006128e484828501612707565b91505092915050565b6000806040838503121561290457612903612660565b5b60006129128582860161267c565b925050602061292385828601612707565b9150509250929050565b6000612938826127be565b9050919050565b6129488161292d565b82525050565b6000602082019050612963600083018461293f565b92915050565b60008060006060848603121561298257612981612660565b5b60006129908682870161267c565b93505060206129a186828701612707565b92505060406129b286828701612707565b9150509250925092565b600062ffffff82169050919050565b6129d4816129bc565b81146129df57600080fd5b50565b6000813590506129f1816129cb565b92915050565b60008060008060808587031215612a1157612a10612660565b5b6000612a1f87828801612707565b9450506020612a308782880161267c565b9350506040612a418782880161267c565b9250506060612a52878288016129e2565b91505092959194509250565b60008060408385031215612a7557612a74612660565b5b6000612a8385828601612707565b9250506020612a9485828601612707565b9150509250929050565b6000612aa9826127be565b9050919050565b612ab981612a9e565b82525050565b6000602082019050612ad46000830184612ab0565b92915050565b600081519050612ae981612665565b92915050565b600060208284031215612b0557612b04612660565b5b6000612b1384828501612ada565b91505092915050565b7f4e487b7100000000000000000000000000000000000000000000000000000000600052601160045260246000fd5b6000612b568261257a565b9150612b618361257a565b9250828202612b6f8161257a565b91508282048414831517612b8657612b85612b1c565b5b5092915050565b7f4e487b7100000000000000000000000000000000000000000000000000000000600052601260045260246000fd5b6000612bc78261257a565b9150612bd28361257a565b925082612be257612be1612b8d565b5b828204905092915050565b7f4e487b7100000000000000000000000000000000000000000000000000000000600052602260045260246000fd5b60006002820490506001821680612c3457607f821691505b602082108103612c4757612c46612bed565b5b50919050565b6000612c588261285f565b9150612c638361285f565b9250828201905060ff811115612c7c57612c7b612b1c565b5b92915050565b6000606082019050612c976000830186612896565b612ca46020830185612584565b612cb16040830184612584565b949350505050565b7f557365206465706f736974282920666f72205375736869000000000000000000600082015250565b6000612cef6017836125b9565b9150612cfa82612cb9565b602082019050919050565b60006020820190508181036000830152612d1e81612ce2565b9050919050565b6000606082019050612d3a6000830186612896565b612d476020830185612896565b612d546040830184612584565b949350505050565b612d658161275c565b8114612d7057600080fd5b50565b600081519050612d8281612d5c565b92915050565b600060208284031215612d9e57612d9d612660565b5b6000612dac84828501612d73565b91505092915050565b6000604082019050612dca6000830185612896565b612dd76020830184612584565b9392505050565b6000612de98261257a565b9150612df48361257a565b9250828201905080821115612e0c57612e0b612b1c565b5b92915050565b612e1b816126de565b82525050565b612e2a816129bc565b82525050565b612e398161257a565b82525050565b612e48816126be565b82525050565b61010082016000820151612e656000850182612e12565b506020820151612e786020850182612e12565b506040820151612e8b6040850182612e21565b506060820151612e9e6060850182612e12565b506080820151612eb16080850182612e30565b5060a0820151612ec460a0850182612e30565b5060c0820151612ed760c0850182612e30565b5060e0820151612eea60e0850182612e3f565b50505050565b600061010082019050612f066000830184612e4e565b92915050565b7f4e6f2053757368692072656365697665642066726f6d20737761700000000000600082015250565b6000612f42601b836125b9565b9150612f4d82612f0c565b602082019050919050565b60006020820190508181036000830152612f7181612f35565b9050919050565b6000604082019050612f8d6000830185612584565b612f9a6020830184612584565b9392505050565b60008160011c9050919050565b6000808291508390505b6001851115612ff857808604811115612fd457612fd3612b1c565b5b6001851615612fe35780820291505b8081029050612ff185612fa1565b9450612fb8565b94509492505050565b60008261301157600190506130cd565b8161301f57600090506130cd565b8160018114613035576002811461303f5761306e565b60019150506130cd565b60ff84111561305157613050612b1c565b5b8360020a91508482111561306857613067612b1c565b5b506130cd565b5060208310610133831016604e8410600b84101617156130a35782820a90508381111561309e5761309d612b1c565b5b6130cd565b6130b08484846001612fae565b925090508184048111156130c7576130c6612b1c565b5b81810290505b9392505050565b60006130df8261257a565b91506130ea8361285f565b92506131177fffffffffffffffffffffffffffffffffffffffffffffffffffffffffffffffff8484613001565b905092915050565b7f4e487b7100000000000000000000000000000000000000000000000000000000600052602160045260246000fd5b60006131598261285f565b91506131648361285f565b92508261317457613173612b8d565b5b82820690509291505056fea264697066735822122097ad3110c64e5fb481d970ea08d3fd98fe0fb2b3b8ddb5af2ef5d52f6dca956b64736f6c63430008140033","abi":[{"inputs":[{"internalType":"contract IERC20Metadata","name":"_sushi","type":"address"},{"internalType":"contract ISushiBar","name":"_sushiBar","type":"address"},{"internalType":"contract ISwapRouter","name":"_router","type":"address"},{"internalType":"contract IERC20","name":"_xSushi","type":"address"}],"stateMutability":"nonpayable","type":"constructor"},{"inputs":[{"internalType":"address","name":"spender","type":"address"},{"internalType":"uint256","name":"allowance","type":"uint256"},{"internalType":"uint256","name":"needed","type":"uint256"}],"name":"ERC20InsufficientAllowance","type":"error"},{"inputs":[{"internalType":"address","name":"sender","type":"address"},{"internalType":"uint256","name":"balance","type":"uint256"},{"internalType":"uint256","name":"needed","type":"uint256"}],"name":"ERC20InsufficientBalance","type":"error"},{"inputs":[{"internalType":"address","name":"approver","type":"address"}],"name":"ERC20InvalidApprover","type":"error"},{"inputs":[{"internalType":"address","name":"receiver","type":"address"}],"name":"ERC20InvalidReceiver","type":"error"},{"inputs":[{"internalType":"address","name":"sender","type":"address"}],"name":"ERC20InvalidSender","type":"error"},{"inputs":[{"internalType":"address","name":"spender","type":"address"}],"name":"ERC20InvalidSpender","type":"error"},{"inputs":[{"internalType":"address","name":"receiver","type":"address"},{"internalType":"uint256","name":"assets","type":"uint256"},{"internalType":"uint256","name":"max","type":"uint256"}],"name":"ERC4626ExceededMaxDeposit","type":"error"},{"inputs":[{"internalType":"address","name":"receiver","type":"address"},{"internalType":"uint256","name":"shares","type":"uint256"},{"internalType":"uint256","name":"max","type":"uint256"}],"name":"ERC4626ExceededMaxMint","type":"error"},{"inputs":[{"internalType":"address","name":"owner","type":"address"},{"internalType":"uint256","name":"shares","type":"uint256"},{"internalType":"uint256","name":"max","type":"uint256"}],"name":"ERC4626ExceededMaxRedeem","type":"error"},{"inputs":[{"internalType":"address","name":"owner","type":"address"},{"internalType":"uint256","name":"assets","type":"uint256"},{"internalType":"uint256","name":"max","type":"uint256"}],"name":"ERC4626ExceededMaxWithdraw","type":"error"},{"inputs":[],"name":"ReentrancyGuardReentrantCall","type":"error"},{"inputs":[{"internalType":"address","name":"token","type":"address"}],"name":"SafeERC20FailedOperation","type":"error"},{"anonymous":false,"inputs":[{"indexed":true,"internalType":"address","name":"owner","type":"address"},{"indexed":true,"internalType":"address","name":"spender","type":"address"},{"indexed":false,"internalType":"uint256","name":"value","type":"uint256"}],"name":"Approval","type":"event"},{"anonymous":false,"inputs":[{"indexed":true,"internalType":"address","name":"sender","type":"address"},{"indexed":true,"internalType":"address","name":"owner","type":"address"},{"indexed":false,"internalType":"uint256","name":"assets","type":"uint256"},{"indexed":false,"internalType":"uint256","name":"shares","type":"uint256"}],"name":"Deposit","type":"event"},{"anonymous":false,"inputs":[{"indexed":true,"internalType":"address","name":"from","type":"address"},{"indexed":true,"internalType":"address","name":"to","type":"address"},{"indexed":false,"internalType":"uint256","name":"value","type":"uint256"}],"name":"Transfer","type":"event"},{"anonymous":false,"inputs":[{"indexed":true,"internalType":"address","name":"sender","type":"address"},{"indexed":true,"internalType":"address","name":"receiver","type":"address"},{"indexed":true,"internalType":"address","name":"owner","type":"address"},{"indexed":false,"internalType":"uint256","name":"assets","type":"uint256"},{"indexed":false,"internalType":"uint256","name":"shares","type":"uint256"}],"name":"Withdraw","type":"event"},{"inputs":[{"internalType":"address","name":"owner","type":"address"},{"internalType":"address","name":"spender","type":"address"}],"name":"allowance","outputs":[{"internalType":"uint256","name":"","type":"uint256"}],"stateMutability":"view","type":"function"},{"inputs":[{"internalType":"address","name":"spender","type":"address"},{"internalType":"uint256","name":"value","type":"uint256"}],"name":"approve","outputs":[{"internalType":"bool","name":"","type":"bool"}],"stateMutability":"nonpayable","type":"function"},{"inputs":[],"name":"asset","outputs":[{"internalType":"address","name":"","type":"address"}],"stateMutability":"view","type":"function"},{"inputs":[{"internalType":"address","name":"account","type":"address"}],"name":"balanceOf","outputs":[{"internalType":"uint256","name":"","type":"uint256"}],"stateMutability":"view","type":"function"},{"inputs":[{"internalType":"uint256","name":"shares","type":"uint256"}],"name":"convertToAssets","outputs":[{"internalType":"uint256","name":"","type":"uint256"}],"stateMutability":"view","type":"function"},{"inputs":[{"internalType":"uint256","name":"assets","type":"uint256"}],"name":"convertToShares","outputs":[{"internalType":"uint256","name":"","type":"uint256"}],"stateMutability":"view","type":"function"},{"inputs":[],"name":"decimals","outputs":[{"internalType":"uint8","name":"","type":"uint8"}],"stateMutability":"view","type":"function"},{"inputs":[{"internalType":"uint256","name":"assets","type":"uint256"},{"internalType":"address","name":"receiver","type":"address"}],"name":"deposit","outputs":[{"internalType":"uint256","name":"","type":"uint256"}],"stateMutability":"nonpayable","type":"function"},{"inputs":[{"internalType":"address","name":"","type":"address"}],"name":"maxDeposit","outputs":[{"internalType":"uint256","name":"","type":"uint256"}],"stateMutability":"view","type":"function"},{"inputs":[{"internalType":"address","name":"","type":"address"}],"name":"maxMint","outputs":[{"internalType":"uint256","name":"","type":"uint256"}],"stateMutability":"view","type":"function"},{"inputs":[{"internalType":"address","name":"owner","type":"address"}],"name":"maxRedeem","outputs":[{"internalType":"uint256","name":"","type":"uint256"}],"stateMutability":"view","type":"function"},{"inputs":[{"internalType":"address","name":"owner","type":"address"}],"name":"maxWithdraw","outputs":[{"internalType":"uint256","name":"","type":"uint256"}],"stateMutability":"view","type":"function"},{"inputs":[{"internalType":"uint256","name":"shares","type":"uint256"},{"internalType":"address","name":"receiver","type":"address"}],"name":"mint","outputs":[{"internalType":"uint256","name":"","type":"uint256"}],"stateMutability":"nonpayable","type":"function"},{"inputs":[],"name":"name","outputs":[{"internalType":"string","name":"","type":"string"}],"stateMutability":"view","type":"function"},{"inputs":[{"internalType":"uint256","name":"assets","type":"uint256"}],"name":"previewDeposit","outputs":[{"internalType":"uint256","name":"","type":"uint256"}],"stateMutability":"view","type":"function"},{"inputs":[{"internalType":"uint256","name":"shares","type":"uint256"}],"name":"previewMint","outputs":[{"internalType":"uint256","name":"","type":"uint256"}],"stateMutability":"view","type":"function"},{"inputs":[{"internalType":"uint256","name":"shares","type":"uint256"}],"name":"previewRedeem","outputs":[{"internalType":"uint256","name":"","type":"uint256"}],"stateMutability":"view","type":"function"},{"inputs":[{"internalType":"uint256","name":"assets","type":"uint256"}],"name":"previewWithdraw","outputs":[{"internalType":"uint256","name":"","type":"uint256"}],"stateMutability":"view","type":"function"},{"inputs":[{"internalType":"uint256","name":"shares","type":"uint256"},{"internalType":"address","name":"receiver","type":"address"},{"internalType":"address","name":"owner","type":"address"}],"name":"redeem","outputs":[{"internalType":"uint256","name":"","type":"uint256"}],"stateMutability":"nonpayable","type":"function"},{"inputs":[],"name":"router","outputs":[{"internalType":"contract ISwapRouter","name":"","type":"address"}],"stateMutability":"view","type":"function"},{"inputs":[],"name":"sushi","outputs":[{"internalType":"contract IERC20","name":"","type":"address"}],"stateMutability":"view","type":"function"},{"inputs":[],"name":"sushiBar","outputs":[{"internalType":"contract ISushiBar","name":"","type":"address"}],"stateMutability":"view","type":"function"},{"inputs":[],"name":"symbol","outputs":[{"internalType":"string","name":"","type":"string"}],"stateMutability":"view","type":"function"},{"inputs":[],"name":"totalAssets","outputs":[{"internalType":"uint256","name":"","type":"uint256"}],"stateMutability":"view","type":"function"},{"inputs":[],"name":"totalSupply","outputs":[{"internalType":"uint256","name":"","type":"uint256"}],"stateMutability":"view","type":"function"},{"inputs":[{"internalType":"address","name":"to","type":"address"},{"internalType":"uint256","name":"value","type":"uint256"}],"name":"transfer","outputs":[{"internalType":"bool","name":"","type":"bool"}],"stateMutability":"nonpayable","type":"function"},{"inputs":[{"internalType":"address","name":"from","type":"address"},{"internalType":"address","name":"to","type":"address"},{"internalType":"uint256","name":"value","type":"uint256"}],"name":"transferFrom","outputs":[{"internalType":"bool","name":"","type":"bool"}],"stateMutability":"nonpayable","type":"function"},{"inputs":[{"internalType":"uint256","name":"assets","type":"uint256"},{"internalType":"address","name":"receiver","type":"address"},{"internalType":"address","name":"owner","type":"address"}],"name":"withdraw","outputs":[{"internalType":"uint256","name":"","type":"uint256"}],"stateMutability":"nonpayable","type":"function"},{"inputs":[],"name":"xSushi","outputs":[{"internalType":"contract IERC20","name":"","type":"address"}],"stateMutability":"view","type":"function"},{"inputs":[{"internalType":"address","name":"tokenIn","type":"address"},{"internalType":"uint256","name":"amountIn","type":"uint256"},{"internalType":"uint256","name":"amountOutMinimum","type":"uint256"},{"internalType":"uint24","name":"fee","type":"uint24"}],"name":"zapIn","outputs":[{"internalType":"uint256","name":"shares","type":"uint256"}],"stateMutability":"nonpayable","type":"function"}]}